:020000040800F2
:100000000050002021020008290200082D020008EB
:10001000A1020008A5020008ED020008000000008F
:10002000000000000000000000000000A10A00081D
:100030003503000800000000010B0008450B000814
:100040004503000845030008450300084503000870
:100050004503000845030008450300084503000860
:100060004503000845030008450300084503000850
:100070004503000845030008450300084503000840
:100080004503000845030008450300084503000830
:100090004503000845030008450300084503000820
:1000A0004503000845030008450300084503000810
:1000B0004503000845030008450300084503000800
:1000C00045030008450300084503000845030008F0
:1000D00045030008450300084503000845030008E0
:1000E0004503000845030008450300080000000020
:1000F0000000000000000000000000000000000000
:1001000000000000000000005FF808F100B583B0B7
:1001100000F0A8F9304B314A1360314A1360314B7B
:10012000314A03E011681960043304322F498B42CD
:10013000F8D32A4B1A682E4B9A4204D1284B1A68DE
:100140002C4B9A4200D0FEE7234B2B4A13602B4ADC
:1001500013602B4B02E000221A600433294A9342B9
:10016000F9D3254B1B6813B9244B1B6803B1FEE779
:1001700000F084F9694601A800F01EF9224C234BD7
:100180001C1BA410002504E01F4B53F82530984792
:100190000135AC42F8DC1E4C1E4B1C1BA410002584
:1001A00004E01B4B53F8253098470135AC42F8DC8E
:1001B0000099019800F02AFB0546174C174B1C1BB1
:1001C000A41004E0013C144B53F824309847002C51
:1001D000F8DC284600F0CCF8BABADECA00000020ED
:1001E0008800002000000020DC2200088C00002095
:1001F00078563412325476988C000020444A0020FD
:100200008C000020484A002070030008700300089A
:1002100070030008700300087003000870030008F2
:1002200008B5FFF773FF00BF00BEFEE71EF0040F26
:100230000CBFEFF30880EFF3098071463E4A104788
:100240002DE9F04182B004468846134B5E6B9F6BEC
:100250009D6A1B6B13F0020F0DD00F4BDB6A002B56
:1002600009DA4BF6AB6100F085F920B14FF000429E
:10027000094BDA620CE0094800F0A6F8CDF80080DE
:100280003B4632462946204600F0FCF800BEFEE719
:1002900002B0BDE8F08100BF00ED00E008220008D8
:1002A00000BEFEE71EF0040F0CBFEFF30880EFF373
:1002B00009807146214A10472DE9F04182B0044679
:1002C0008846084B5E6B9F6B9D6A074800F07CF880
:1002D000CDF800803B4632462946204600F0D2F851
:1002E00000BEFEE700ED00E0182200081EF0040F3B
:1002F0000CBFEFF30880EFF309807146104A1047F6
:100300002DE9F04182B004468846084B5E6B9F6B36
:100310009D6A074800F058F8CDF800803B46324609
:100320002946204600F0AEF800BEFEE700ED00E0F2
:100330002422000800BEFEE741020008B9020008BE
:080340000103000800BEFEE706
:10034800DC220008000000208C000020DC220008CD
:1003580000000000000000008C000020484A002037
:0803680000000000000000008D
:10037000FEE700BF08B50D4B1B6813B90C4A0B4BC9
:100380001A600A4B1A68C31C23F00303134409497B
:100390008B4206D901F06CFA0C2303604FF0FF305A
:1003A00008BD02490B60104608BD00BF9000002048
:1003B000484A0020004C002001230360014B0B60E1
:1003C000704700BF040000200FB400B583B004AB39
:1003D00053F8042B01938021064801F08DFA002880
:1003E00003DD0146034800F039F803B05DF804EB83
:1003F00004B07047980000202DE9F04385B0044612
:100400000F46435613BB042528462146ABBE04467F
:100410001FE03546102E28BF1025002306E014F9F2
:10042000011B04AA1A4402F8101C0133AB42F6D394
:1004300004AA1344002203F8102CE9464FF00408E4
:1004400040464946ABBE8046761B00E00E46002E75
:10045000DFD1384605B0BDE8F08300BF08B5FFF72F
:10046000CBFF08BD08B500F0FBF8024B024A9A60CA
:1004700008BD00BF00ED00E00000000808B500F076
:1004800017F908BDF8B504460D4617461E4626481E
:10049000FFF79AFF21682548FFF796FF6168244817
:1004A000FFF792FFA1682348FFF78EFFE16822481B
:1004B000FFF78AFF21692148FFF786FF616920481D
:1004C000FFF782FFA1691F48FFF77EFFE1691E4821
:1004D000FFF77AFF1D48FFF777FF29461C48FFF713
:1004E00073FF1C4CE16A1C48FFF76EFF216B1B4831
:1004F000FFF76AFFE16B1A48FFF766FF15F0800F00
:1005000003D039461748FFF75FFF15F4004F03D0BB
:1005100031461548FFF758FF1448FFF755FF069975
:100520001348FFF751FFF8BDEC200008FC2000083D
:100530000C2100081C2100082C2100083C21000887
:100540004C2100085C2100086C2100087C21000877
:100550008821000800ED00E098210008A82100088B
:10056000B8210008C8210008D8210008E8210008A7
:10057000F021000883691A888A4207D10268033A89
:10058000012A05D80233836101207047002070479B
:100590000020704782B00023019300932C4A136817
:1005A00043F4803313602A4B1B6803F40033009339
:1005B000019B01330193009B1BB9019BB3F5A06F15
:1005C000F1D1234B1B6813F4003F02D001230093A9
:1005D00001E000230093009B012B36D11D4B1A68CC
:1005E00042F010021A601A6822F003021A601A68B8
:1005F00042F002021A60A3F580535A685A605A68A2
:100600005A605A6842F480625A605A6822F47C1236
:100610005A605A6842F4E8125A601A6842F08072CE
:100620001A600B4B1B6813F0007FFAD0084B5A6816
:1006300022F003025A605A6842F002025A60044BE8
:100640005B6803F00C03082BF9D102B0704700BFC0
:10065000001002400020024008B5FFF79BFF08BDD4
:1006600008B5104B1A6842F001021A6059680E4A28
:100670000A405A601A6822F0847222F480321A60AA
:100680001A6822F480221A605A6822F4FE025A6024
:100690004FF41F029A60FFF7DFFF4FF00062034B39
:1006A0009A6008BD001002400000FFF800ED00E075
:1006B0001F4B5B6803F00C03042B06D0082B08D0FB
:1006C0003BBB1C4A1C4B1A6026E01A4A1A4B1A60A4
:1006D00022E0174A53685268C3F38343023312F48B
:1006E000803F05D1154A02FB03F3134A136013E060
:1006F0000F4A526812F4003F05D0104A02FB03F380
:100700000D4A136008E00B4A02FB03F30A4A136028
:1007100002E0084A084B1A60054B5B68C3F30313F9
:10072000074AD35CDAB204490B68D3400B607047C8
:100730000010024000127A001C00002000093D0059
:100740000C00002010B582B0124C00234FF0FF3295
:100750001946206800F0E2FB0F491048FFF734FE0D
:1007600000231A461946206800F066FB0023019317
:1007700002E0019B01330193019A094B9A42F8D997
:100780004FF08052074B1A60BFF34F8FBFF36F8F4C
:10079000DAE700BF180100203422000848220008D0
:1007A000FEFF0F0004ED00E010B582B0124C0023F4
:1007B0004FF0FF321946206800F0B0FB0F49104897
:1007C000FFF702FE00231A461946206800F034FBAA
:1007D0000023019302E0019B01330193019A094B2D
:1007E0009A42F8D94FF08052074B1A60BFF34F8FEF
:1007F000BFF36F8FDAE700BF180100204C2200081A
:1008000048220008FEFF0F0004ED00E030B585B07F
:10081000FFF726FFFFF74CFF1248FFF7D5FD002436
:100820000194012500952346F0220F490F4800F05E
:1008300037FD0390019400952346F0220C490D48A2
:1008400000F02EFD029003222146284600F0DAFA3D
:10085000094B186023462246214600F0EDFA00F0CD
:1008600051FDFEE7602200088C22000845070008C1
:1008700094220008A907000818010020FEE700BF25
:10088000124A12F0070F07D0D11D21F00701C1F560
:10089000904313440A4601E04FF490430C48026031
:1008A000002141601344083B23F00703094803601B
:1008B00059601960991A51601360074B1960074B12
:1008C00019604FF00042064B1A6070472C0100205F
:1008D0002401002020010020304900201C010020BC
:1008E0002C490020124A00E01A4613688342FBD3C9
:1008F00010B451685418A04203D1406801445160BB
:10090000104641684418A3420CD10A4C2468A34203
:1009100006D05B681944416013681B68036002E0FD
:10092000046000E00360904200D0106010BC70478B
:10093000240100202001002070B5054600F012FDC2
:10094000274B1B680BB9FFF79BFF264B1B681D420B
:100950003BD135B1083515F0070F02D025F007055A
:100960000835002D33D0204B1B689D4231D81F4ADB
:10097000146801E022461C4663689D4202D9236840
:10098000002BF7D1164B1B689C4224D01668083602
:100990002368136063685B1B102B04D960194360E4
:1009A0006560FFF79FFF62680F490B689B1A0B6039
:1009B0000F4909688B4201D20D490B60094B1B6836
:1009C0001A4362600023236006E0002604E000264C
:1009D00002E0002600E0002600F032FD304670BD47
:1009E000200100202C4900201C01002024010020AF
:1009F00030490020F8B138B50346A0F1080550F899
:100A0000042C0D4909680A4214D050F8080C88B922
:100A10001C4622EA010243F8042C00F0A3FC54F81F
:100A2000043C064A11680B4413602846FFF75AFF3E
:100A300000F006FD38BD70472C4900201C01002045
:100A40004FF0BF0383F31188BFF36F8FBFF34F8F56
:100A5000FEE700BF06480068006880F3088862B6B9
:100A600061B6BFF34F8FBFF36F8F00DF00BF000091
:100A700008ED00E04FF0807340F8043C21F00101E4
:100A800040F8081C034B40F80C3C40F8202C403840
:100A9000704700BF410A000800000000000000008D
:100AA000074B19680868B0E8F00F80F30988BFF3B6
:100AB0006F8F4FF0000080F311884EF00D0E7047DD
:100AC000CC4900204FF0BF0383F31188BFF36F8F31
:100AD000BFF34F8F024A136801331360704700BFA2
:100AE00020000020034A1368013B13600BB983F315
:100AF0001188704720000020000000000000000066
:100B0000EFF30980BFF36F8F0D4B1A6820E9F00FE8
:100B100010602DE908404FF0BF0080F3118800F00D
:100B200027FD4FF0000080F31188BDE808401968E8
:100B30000868B0E8F00F80F30988BFF36F8F704743
:100B4000CC49002008B54FF0BF0383F31188BFF3F1
:100B50006F8FBFF34F8F00F00DFC18B14FF0805234
:100B6000024B1A60002383F3118808BD04ED00E0F6
:100B7000034A044B1A600722043B1A60704700BF07
:100B80003F19010014E000E008B5094B1A6842F46F
:100B90007F021A601A6842F07F421A60FFF7E8FF8E
:100BA0000022044B1A60FFF755FFFFF749FF00BF13
:100BB00020ED00E02000002000F1080343604FF02A
:100BC000FF328260C360036100230360704700BF8F
:100BD00000230361704700BF43684B609A688A60D6
:100BE0009A68516099600861036801330360704737
:100BF00030B40D68B5F1FF3F01D1026907E000F1A3
:100C0000080200E01A4653681C68A542FAD25368ED
:100C10004B6099608A60516008610368013303602A
:100C200030BC70470369426881689160826841689E
:100C300051605A68904201D182685A600022026174
:100C4000186801381860704710B50446FFF73AFF7E
:100C5000A26BE36B9A4201D1012400E00024FFF76C
:100C600041FF204610BD00BF10B50446FFF72AFF24
:100C7000A36B0BB9012400E00024FFF733FF2046EB
:100C800010BD00BF70B504461646856B026C3AB9BC
:100C9000036843BB406800F09BFD0023636029E0CC
:100CA0006EB9806800F0EAFDA268236C1344A3606B
:100CB0006268934219D32368A36000201AE0C068D9
:100CC00000F0DCFD236C5B42E2681A44E2602168BC
:100CD0008A4202D262681344E360022E07D145B112
:100CE000013D002006E0002004E0002002E000209A
:100CF00000E000200135A56370BD00BF026C72B139
:100D000010B5C3681344C3604468A34201D30368A9
:100D1000C3600C46C168204600F0B0FD10BD7047AE
:100D200038B50546FFF7CEFE95F8454064B20AE0B7
:100D30006B6A53B105F1240000F07CFC08B100F0AF
:100D4000EDFC013C64B2002CF2DCFF2385F8453059
:100D5000FFF7C8FEFFF7B6FE95F8444064B20AE01C
:100D60002B6953B105F1100000F064FC08B100F0EC
:100D7000D5FC013C64B2002CF2DCFF2385F8443042
:100D8000FFF7B0FE38BD00BF38B504460D46FFF78B
:100D900099FE2168E26B236C03FB02106060002067
:100DA000A063A160013A02FB0313E360FF2384F810
:100DB000443084F8453035B9236963B104F110003B
:100DC00000F038FC07E004F11000FFF7F5FE04F135
:100DD0002400FFF7F1FEFFF785FE012038BD00BFBC
:100DE00038B51D46049C0B4609B9246000E022601A
:100DF000E063236401212046FFF7C6FF84F84C50CE
:100E000038BD00BFF0B583B0054617460E4611B198
:100E100000FB01F000E000205030FFF78DFD04469C
:100E200038B100903B4600F1500231462846FFF7AA
:100E3000D7FF204603B0F0BDF0B585B004460F469D
:100E400001921E460025FFF73DFEA26BE36B9A421E
:100E500001D3022E0ED1324639462046FFF712FF4B
:100E6000636A1BB104F1240000F0E4FBFFF73AFED3
:100E700001204EE0019B1BB9FFF734FE002048E043
:100E80001DB902A800F012FC0125FFF72BFE00F0AF
:100E900069FAFFF717FE94F844305BB2B3F1FF3FF5
:100EA00002D1002384F8443094F845305BB2B3F1AA
:100EB000FF3F02D1002384F84530FFF713FE01A95C
:100EC00002A800F0FFFBF0B92046FFF7BDFEA0B17D
:100ED000019904F1100000F09FFB2046FFF720FF6E
:100EE00000F0AEFA0028AED14FF080520A4B1A60E3
:100EF000BFF34F8FBFF36F8FA5E72046FFF710FFBB
:100F000000F09EFA9FE72046FFF70AFF00F098FAEC
:100F1000002005B0F0BD00BF04ED00E02DE9F04178
:100F200084B00446884601921E460025FFF7CAFD9C
:100F3000A76BF7B1E56841462046FFF7DFFE6EB9C3
:100F40007B1EA363236813B900F084FC60602369EF
:100F50005BB104F1100000F06DFB06E0E560636A30
:100F60001BB104F1240000F065FBFFF7BBFD01207D
:100F70005CE0019B1BB9FFF7B5FD002056E01DB9F1
:100F800002A800F093FB0125FFF7ACFD00F0EAF9A1
:100F9000FFF798FD94F844305BB2B3F1FF3F02D104
:100FA000002384F8443094F845305BB2B3F1FF3F3E
:100FB00002D1002384F84530FFF794FD01A902A86F
:100FC00000F080FB38BB2046FFF74EFEE8B12368F7
:100FD00033B9FFF777FD606800F0A6FBFFF782FDED
:100FE000019904F1240000F017FB2046FFF798FE5A
:100FF00000F026FA002899D14FF080520D4B1A606C
:10100000BFF34F8FBFF36F8F90E72046FFF788FE47
:1010100000F016FA8AE72046FFF782FE00F010FA89
:101020002046FFF721FE002880D0002004B0BDE854
:10103000F08100BF04ED00E00A4B1B681B680BB990
:10104000012300E0002323B14FF0FF32064B1A606A
:101050007047044B1B68DB68DB685A68024B1A60F8
:10106000704700BF38490020EC49002010B5044605
:10107000006BFFF7BFFC2046FFF7BCFC10BD00BFB4
:101080002DE9F04781460D4617469A46089EDDF841
:1010900024800A9C9200A521206B00F0FAFB236BB0
:1010A00007F18042013A03EB820727F0070700238C
:1010B00006E0E956E21882F83410EA5612B101331C
:1010C0000F2BF6D9002384F84330042E00D90426D0
:1010D000E662E66400252565201DFFF779FD04F131
:1010E0001800FFF775FD2461C6F10506A66164626C
:1010F000656584F85850524649463846FFF7BAFCB1
:101100002060B8F1000F01D0C8F80040BDE8F087BA
:1011100038B5002407E004EB840293000E4818441D
:10112000FFF74AFD0134042CF5D90C4D2846FFF792
:1011300043FD0B4C2046FFF73FFD0A48FFF73CFDFF
:101140000948FFF739FD0948FFF736FD084B1D60D8
:10115000084B1C6038BD00BF5C490020F4490020EA
:10116000084A0020D0490020404900201C4A0020A5
:10117000384900205449002010B50446FFF7A2FC6E
:101180001B4A1368013313601A4B1B683BB9194B98
:101190001C601368012B0DD1FFF7BAFF0AE0164B54
:1011A0001B683BB9134B1B68DA6AE36A9A4201D8A1
:1011B000104B1C60114A1368013313606364E36AC7
:1011C000012202FA03F10E4802680A43026003EBAF
:1011D00083039A00211D0B481044FFF7FDFCFFF725
:1011E00081FC054B1B680BB1024B1B6810BD00BF97
:1011F000C8490020CC4900203C490020F04900208B
:10120000304A00205C49002070B504460E461D4B54
:101210001D681D4B18680430FFF704FD50B91A4BC8
:101220001B68DA6A012303FA02F218490B6823EA01
:1012300002030B60B4F1FF3F07D136B1124B1968BE
:1012400004311348FFF7C8FC70BD2C440E4B1B68DB
:101250005C60A54207D90F4B18680B4B1968043125
:10126000FFF7C6FC70BD0C4B1868074B19680431BA
:10127000FFF7BEFC094B1B689C4201D2074B1C6068
:1012800070BD00BFE8490020CC490020304A002052
:101290001C4A00205449002038490020EC49002015
:1012A0002DE9F04385B006460F4615469846900056
:1012B000FFF742FB60B181465C20FFF73DFB04462F
:1012C00010B1C0F8309004E04846FFF793FB00E00F
:1012D00000248CB10023039302940D9B01930C9B7B
:1012E000009343462A4639463046FFF7C9FE20465A
:1012F000FFF742FF012001E04FF0FF3005B0BDE8ED
:10130000F08300BF00B583B0104B0193002300931E
:1013100078220F490F48FFF7C3FF012813D14FF080
:10132000BF0383F31188BFF36F8FBFF34F8F4FF06D
:10133000FF32094B1A600122084B1A600022084B49
:101340001A60FFF721FC03B05DF804FBE4490020BC
:101350009C22000855150008EC4900203C4900205B
:10136000E8490020024A136801331360704700BF48
:10137000C0490020294B1B68002B47D170B5284B72
:101380001E6801361E605EB9264A1168264B186831
:1013900010601960254A136801331360FFF74CFE93
:1013A000234B1B689E4237D31E4B1B681B680BB92F
:1013B000012300E0002323B14FF0FF321C4B1A60E1
:1013C0002AE0184B1B68DB68DC6863689E4202D227
:1013D000174A136020E0251D2846FFF723FCA36A67
:1013E0001BB104F11800FFF71DFCE36A012202FAA9
:1013F00003F1104802680A43026003EB83039A007A
:1014000029460D481044FFF7E7FBCDE70B4A136868
:101410000133136000207047002070BDC0490020D8
:10142000E849002038490020544900203449002070
:10143000EC490020304A00205C4900205849002037
:1014400038B5FFF73FFB264B1A68013A1A601B6854
:10145000002B40D1234B1B682BBB3CE0224BDB68AD
:10146000DC6804F11800FFF7DDFB251D2846FFF7B7
:10147000D9FBE36A012202FA03F11C4802680A431D
:10148000026003EB83039A00294619481044FFF7D2
:10149000A3FBE26A174B1B68DB6A9A4204D3012262
:1014A000154B1A6000E000240F4B1B68002BD5D1B0
:1014B0000CB1FFF7C1FD114B1C6854B1FFF75AFF87
:1014C00010B101220C4B1A60013CF7D100220B4BEA
:1014D0001A60094B1B68FFF705FB002038BD00BFF1
:1014E000C0490020C8490020D0490020304A0020CF
:1014F0005C490020CC490020344A00205849002093
:1015000010B51BE0FFF72EFF0F4B1C68FFF798FF8D
:10151000A4B1FFF7D7FA0C4BDB68DC68201DFFF79E
:1015200081FB0A4A1368013B1360094A1368013BB7
:101530001360FFF7D7FA2046FFF798FD044B1B68AE
:10154000002BDFD110BD00BF40490020C84900205A
:10155000C449002008B5FFF7D3FF4FF08052034B7A
:101560001A60BFF34F8FBFF36F8FF4E704ED00E015
:1015700038B5244B1B681BB10122234B1A6038BDC0
:101580000022214B1A60214B1B681B6B1A68B2F1B9
:10159000A53F0BD15A68B2F1A53F07D19A68B2F1C5
:1015A000A53F03D1DB68B3F1A53F05D0174B186801
:1015B00019683431FFF762F9154B1B68B3FA83F3EE
:1015C000DBB2C3F11F03134D9900CA1890002844E1
:1015D00042685468446019448A0008322A4494429C
:1015E00005D1606803EB83018A002A44506003EB55
:1015F00083039A00074B1A445368DA68034B1A6056
:1016000038BD00BFC0490020344A0020CC4900202A
:10161000304A00205C49002010B50C46044B196884
:101620001831FFF7E5FA01212046FFF7EDFD10BD67
:10163000CC49002038B5C368DC6804F11805284699
:10164000FFF7F0FA134B1B68A3B9251D2846FFF7D7
:10165000E9FAE36A012202FA03F10F4802680A4339
:10166000026003EB83039A0029460C481044FFF7FD
:10167000B3FA03E029460A48FFF7AEFAE26A094BDB
:101680001B68DB6A9A4203D90120074B186038BDFA
:10169000002038BDC0490020304A00205C490020AD
:1016A000D0490020CC490020344A0020034B1B685D
:1016B0000360034B1B684360704700BF3449002040
:1016C000E849002038B504460D46FFF7FBF9114BF9
:1016D0001A682B68B3F1FF3F13D020680E490968E0
:1016E000884202D061688A420DD26168501A8342F2
:1016F0000BD98A1A13442B602046FFF7D7FF00242A
:1017000004E0002402E0012400E00124FFF7EAF9EC
:10171000204638BDE8490020344900200122014B11
:101720001A607047344A002000284AD038B5024673
:10173000C36A24490968C96A8B4241D28169002978
:1017400005DB20490968C96AC1F105018161506959
:1017500003EB830399001C4B1944884201D10123F8
:1017600000E0002343B31446151D2846FFF75AFA3C
:1017700070B9E36A03EB83018A0013498A583AB9C6
:10178000012202FA03F311490A6822EA03030B60FB
:101790000C4B1B68DB6AE362012202FA03F10B487F
:1017A00002680A43026003EB83039A002946064855
:1017B0001044FFF711FA38BD024B1B68DB6AD36295
:1017C00038BD7047CC4900205C490020304A0020D9
:1017D000002834D038B50346026D013A0265C06A6C
:1017E000D96C88422DD072BB1C461D1D2846FFF7C0
:1017F00019FA70B9E36A03EB83018A0013498A5826
:101800003AB9012202FA03F311490A6822EA0303F2
:101810000B60E36CE362C3F10502A261012404FAE8
:1018200003F00B490A6802430A6003EB83039A0042
:10183000294606481044FFF7CFF9204638BD00205E
:101840007047002038BD002038BD00BF5C49002033
:10185000304A0020054B1B6823B1044B1A68136DF6
:1018600001331365014B1868704700BFCC49002055
:10187000014B1868704700BF8400002010B5431E5C
:101880000A44914204D011F8014B03F8014FF8E7E4
:1018900010BD03460244934202D003F8011BFAE74D
:1018A000704730B5141E05469BB0184604DA8B23EA
:1018B0002B604FF0FF301DE04FF40273ADF80C3099
:1018C0000CBF234604F1FF33029305934FF6FF73D9
:1018D00000910491ADF80E3002461E9B69462846E1
:1018E00000F072F8431CBCBF8B232B6014B1009B2B
:1018F00000221A701BB030BD07B5009313460A468C
:10190000014603480068FFF7CCFF03B05DF804FB15
:10191000840000202DE9F0478E6882469E420C46E6
:10192000914698463ED88A8912F4906F3AD025683D
:10193000096902236F1A656905EB450595FBF3F507
:101940007B1C43449D4238BF1D4653050FD5294695
:1019500000F038FB064698B13A462169FFF78EFF42
:10196000A38923F4906343F08003A38113E02A4604
:1019700000F07CFB064670B92169504600F0DEFAA3
:101980000C23CAF80030A3894FF0FF3043F0400326
:10199000A381BDE8F08726613E4426604646656126
:1019A000ED1BA560464528BF46464946324620689D
:1019B00000F0A8FAA36800209B1BA36023681E44C4
:1019C0002660BDE8F08700002DE9F04F9DB003933D
:1019D0008B8980461C060D4616460DD50B695BB9F2
:1019E000402100F0EFFA2860286118B90C23C8F8EC
:1019F0000030CDE040236B610023099320238DF854
:101A00002930DFF89CB130238DF82A3037463C4628
:101A100014F8013B1BB9B7EB060910D003E0252BE6
:101A2000F9D02746F3E74B46324629464046FFF7B2
:101A300071FF013000F0A780099B4B4409933B786C
:101A4000002B00F0A08000234FF0FF320493079397
:101A5000059206938DF853301A93012605222178BA
:101A60004E4800F041FA671C049B38B14B4A3C4693
:101A7000801A06FA00F018430490EFE7D90644BF35
:101A800020228DF853201A0744BF2B228DF85320B3
:101A900022782A2A03D0079A00210A200BE0039A11
:101AA000111D12680391002A10DA524243F002001D
:101AB000079204900BE027463B780134303B092B1A
:101AC00003D800FB02320121F5E701B107923B7810
:101AD0002E2B1ED17B782A2B0AD1039B02371A1D8D
:101AE0001B680392002BB8BF4FF0FF33059310E043
:101AF000002319460593781C0A2407463A780130DA
:101B0000303A092A03D804FB01210123F5E703B188
:101B1000059103223978224800F0E6F940B14023CC
:101B2000CBEB000003FA00F0049B0137184304904C
:101B3000397806221B487E1C8DF8281000F0D4F955
:101B400088B1194B33B9039B073323F007030833DC
:101B5000039314E003AB00932A46144B04A94046B8
:101B6000AFF3008007E003AB00932A460F4B04A9B4
:101B7000404600F093F8B0F1FF3F824603D0099B46
:101B80005344099342E7AB895B0601D4099801E00D
:101B90004FF0FF301DB0BDE8F08F00BFA622000857
:101BA000AC220008B022000800000000151900084F
:101BB0002DE9F04791461F460A698B680646934215
:101BC000B8BF1346C9F8003091F843200C46DDF841
:101BD000208012B10133C9F800302368990642BF52
:101BE000D9F800300233C9F80030256815F0060531
:101BF00010D104F1190A07E0012352463946304654
:101C0000C04701301AD00135E368D9F800209B1A8B
:101C10009D42F1DB94F843302268003318BF012362
:101C200092060FD5E118302081F843005A1C94F831
:101C300045102244023382F8431003E04FF0FF3096
:101C4000BDE8F08704F1430239463046C047013011
:101C5000F4D02268D9F80050E36802F00602042AA2
:101C600008BF5D1B2269A3680CBF25EAE575002546
:101C70009342C4BF9B1AED184FF000091A344D452A
:101C800009D00123224639463046C0470130D5D01D
:101C900009F10109F3E70020BDE8F0872DE9F043E1
:101CA00017460A7E85B06E2A984606460C460C9B5F
:101CB00001F1430E00F0AE8011D8632A22D009D87A
:101CC000002A00F0BB80582A40F0CA8081F84520E5
:101CD000834955E0642A1ED0692A1CD0C0E0732ACB
:101CE00000F0B08009D86F2A2ED0702A40F0B8805A
:101CF0000A6842F020020A603EE0752A24D0782A61
:101D00003AD0ADE01A6801F14205111D196013685F
:101D100084F84230A8E021681A6811F0800F02D0E0
:101D2000111D196008E011F0400F02F10401196063
:101D300002D0B2F9003000E01368002B3CDA2D220B
:101D40005B4284F8432037E021681A6811F0800F65
:101D500002D0111D196007E011F0400F02F10401DB
:101D6000196001D0138800E01368227E5C496F2A55
:101D700014BF0A2208221BE078225A4984F8452021
:101D80002268186812F0800F00F104051D6003D16D
:101D9000550601D5038800E00368D00744BF42F030
:101DA000200222601BB9226822F020022260102249
:101DB000002084F8430001E049490A226568002DAB
:101DC000A56008DB206820F0040020602BB9002DFE
:101DD0007DD175460CE0002B79D07546B3FBF2F04F
:101DE00002FB1033CB5C05F8013D03460028F5D11A
:101DF000082A0BD12368DA0708D5236962689A425A
:101E0000DEBF302305F8013C05F1FF35C5EB0E03BD
:101E100023612EE008681A6810F0800F496903D02A
:101E2000101D1860136808E010F0400F02F1040064
:101E30001860136801D0198000E019600023236145
:101E4000754616E01A68111D196015680021626850
:101E5000284600F049F808B1401B6060636804E060
:101E600004F1420584F8422001232361002384F811
:101E70004330CDF800803B4603AA21463046FFF7A9
:101E800097FE013002D14FF0FF3026E023692A4649
:101E900039463046C0470130F5D023689B0710D53E
:101EA000002504F1190907E001234A463946304666
:101EB000C0470130E7D00135E368039A9B1A9D4281
:101EC000F2DBE068039B9842B8BF184605E00B7848
:101ED00004F1420584F842308AE705B0BDE8F0839A
:101EE000B7220008C822000810B5C9B202449042C7
:101EF000034605D01C7801308C42F8D1184610BD3D
:101F0000002010BD884210B501EB020301D8421E2B
:101F10000BE09842FBD28118D21AD34204D013F8B6
:101F2000014D01F8014DF8E710BD994204D011F8B8
:101F3000014B02F8014FF8E710BD000030B5002951
:101F40003CD051F8042C0B1F1D49002AB8BF9B1828
:101F50000A680C4612B95A600B6030BD9A420DD91E
:101F600019685818824201BF106852680918196030
:101F70005A60236030BD994203D80A46516800294F
:101F8000F9D1146815199D420AD11B682344D01851
:101F90008142136012D10868034413604B680CE05F
:101FA00002D90C23036030BD18681C18A14201BF80
:101FB0000C684968001918605960536030BD00BF53
:101FC0003C4A002070B5CD1C25F0030508350C2DCA
:101FD00038BF0C25002D064603DA0C2333600020A1
:101FE00070BDA942F9D81F4B1C681A462146A1B101
:101FF0000B685B1B0ED40B2B03D90B60CC18CD5098
:102000001EE08C420BBF63684B681360636018BFAF
:102010000C4615E00C464968E9E7134C23681BB9E8
:10202000304600F049F820602946304600F044F878
:10203000431CD2D0C41C24F00304A0420AD1256062
:1020400004F10B00231D20F00700C31A09D05A42E7
:10205000E25070BD211A304600F02EF80130EED16A
:10206000BBE770BD3C4A0020384A0020F8B507465F
:1020700015460E4621B91146BDE8F840FFF7A2BF4C
:102080001AB9FFF75BFF2846F8BD00F025F8854236
:102090000ED929463846FFF795FF044650B1314620
:1020A0002A46FFF7EBFB31463846FFF747FF01E0D2
:1020B0003046F8BD2046F8BD38B5064C002305462D
:1020C00008462360FEF756F9431C02D1236803B18A
:1020D0002B6038BD404A002051F8040C0028BEBFD8
:1020E000091851F8043CC0180438704753746163F0
:1020F0006B206672616D653A0A0000002052302044
:102100003D2020253038580A0000000020523120A0
:102110003D2020253038580A00000000205232208F
:102120003D2020253038580A00000000205233207E
:102130003D2020253038580A00000000205231325E
:10214000203D20253038580A00000000204C522045
:102150003D2020253038580A000000002050432040
:102160003D2020253038580A0000000020505352EE
:10217000203D20253038580A000000004653522FD9
:102180004641523A0A0000002043465352203D2067
:1021900020253038580A00002048465352203D2060
:1021A00020253038580A00002044465352203D2054
:1021B00020253038580A00002041465352203D2047
:1021C00020253038580A0000204D4D464152203D10
:1021D00020253038580A00002042464152203D2038
:1021E00020253038580A00004D6973630A0000004A
:1021F000204C522F4558435F52455455524E3D2076
:10220000253038580A0000005B48617264466175E9
:102210006C745D0A000000005B4275734661756C6A
:10222000745D0A005B55736167654661756C745D2A
:102230000A0000005461736B2031206973207275AD
:102240006E6E696E670A000025730A005461736B35
:1022500020322069732072756E6E696E670A000005
:1022600045636C697073652D4672656552544F53B2
:102270002050726F6A6563742C204665622031318C
:10228000202C2032303137200A0000005461736B5B
:10229000203100005461736B2032000049444C45EA
:1022A000000000004300232D302B2000686C4C0000
:1022B0006566674546470030313233343536373846
:1022C00039414243444546003031323334353637A4
:0922D0003839616263646566003F
:1022DC00785634129400002000000000000000002A
:1022EC0000000000010203040607080900A24A04CA
:1022FC00AAAAAAAA0000000000000000000000002A
:10230C0000000000000000000000000000000000C1
:10231C0000000000A42200080000000000000000E3
:10232C0000000000000000000000000000000000A1
:10233C000000000000000000000000000000000091
:10234C000000000000000000000000000000000081
:0C235C000000000024000020325476989D
:040000050800010DE1
:00000001FF
